{
  "_format": "hh-sol-artifact-1",
  "contractName": "Decentroge",
  "sourceName": "contracts/Decentroge.sol",
  "abi": [
    {
      "inputs": [],
      "stateMutability": "nonpayable",
      "type": "constructor"
    },
    {
      "anonymous": false,
      "inputs": [
        {
          "indexed": true,
          "internalType": "address",
          "name": "owner",
          "type": "address"
        },
        {
          "indexed": true,
          "internalType": "address",
          "name": "approved",
          "type": "address"
        },
        {
          "indexed": true,
          "internalType": "uint256",
          "name": "tokenId",
          "type": "uint256"
        }
      ],
      "name": "Approval",
      "type": "event"
    },
    {
      "anonymous": false,
      "inputs": [
        {
          "indexed": true,
          "internalType": "address",
          "name": "owner",
          "type": "address"
        },
        {
          "indexed": true,
          "internalType": "address",
          "name": "operator",
          "type": "address"
        },
        {
          "indexed": false,
          "internalType": "bool",
          "name": "approved",
          "type": "bool"
        }
      ],
      "name": "ApprovalForAll",
      "type": "event"
    },
    {
      "anonymous": false,
      "inputs": [
        {
          "indexed": true,
          "internalType": "uint256",
          "name": "fileId",
          "type": "uint256"
        },
        {
          "indexed": false,
          "internalType": "uint256",
          "name": "fileCount",
          "type": "uint256"
        },
        {
          "indexed": false,
          "internalType": "string",
          "name": "fileHash",
          "type": "string"
        },
        {
          "indexed": false,
          "internalType": "uint256",
          "name": "fileSize",
          "type": "uint256"
        },
        {
          "indexed": false,
          "internalType": "string",
          "name": "fileType",
          "type": "string"
        },
        {
          "indexed": false,
          "internalType": "string",
          "name": "fileName",
          "type": "string"
        },
        {
          "indexed": false,
          "internalType": "uint256",
          "name": "folderId",
          "type": "uint256"
        },
        {
          "indexed": false,
          "internalType": "string",
          "name": "fileDescription",
          "type": "string"
        },
        {
          "indexed": false,
          "internalType": "uint256",
          "name": "uploadTime",
          "type": "uint256"
        },
        {
          "indexed": false,
          "internalType": "address",
          "name": "sender",
          "type": "address"
        }
      ],
      "name": "FileCreated",
      "type": "event"
    },
    {
      "anonymous": false,
      "inputs": [
        {
          "indexed": true,
          "internalType": "uint256",
          "name": "_id",
          "type": "uint256"
        },
        {
          "indexed": false,
          "internalType": "string",
          "name": "foldername",
          "type": "string"
        }
      ],
      "name": "FolderCreated",
      "type": "event"
    },
    {
      "anonymous": false,
      "inputs": [
        {
          "indexed": true,
          "internalType": "uint256",
          "name": "tokenId",
          "type": "uint256"
        },
        {
          "indexed": false,
          "internalType": "address",
          "name": "seller",
          "type": "address"
        },
        {
          "indexed": false,
          "internalType": "address",
          "name": "owner",
          "type": "address"
        },
        {
          "indexed": false,
          "internalType": "uint256",
          "name": "price",
          "type": "uint256"
        },
        {
          "indexed": false,
          "internalType": "bool",
          "name": "sold",
          "type": "bool"
        },
        {
          "indexed": false,
          "internalType": "string",
          "name": "name",
          "type": "string"
        },
        {
          "indexed": false,
          "internalType": "string",
          "name": "description",
          "type": "string"
        },
        {
          "indexed": false,
          "internalType": "string",
          "name": "image",
          "type": "string"
        }
      ],
      "name": "MarketItemCreated",
      "type": "event"
    },
    {
      "anonymous": false,
      "inputs": [
        {
          "indexed": true,
          "internalType": "address",
          "name": "from",
          "type": "address"
        },
        {
          "indexed": true,
          "internalType": "address",
          "name": "to",
          "type": "address"
        },
        {
          "indexed": true,
          "internalType": "uint256",
          "name": "tokenId",
          "type": "uint256"
        }
      ],
      "name": "Transfer",
      "type": "event"
    },
    {
      "anonymous": false,
      "inputs": [
        {
          "indexed": false,
          "internalType": "uint256",
          "name": "id",
          "type": "uint256"
        },
        {
          "indexed": false,
          "internalType": "address payable",
          "name": "_address",
          "type": "address"
        },
        {
          "indexed": false,
          "internalType": "string",
          "name": "image",
          "type": "string"
        },
        {
          "indexed": false,
          "internalType": "string",
          "name": "profile",
          "type": "string"
        },
        {
          "indexed": false,
          "internalType": "uint256",
          "name": "balance",
          "type": "uint256"
        }
      ],
      "name": "UserCreated",
      "type": "event"
    },
    {
      "inputs": [
        {
          "internalType": "uint256",
          "name": "_folderId",
          "type": "uint256"
        },
        {
          "internalType": "string",
          "name": "_fileHash",
          "type": "string"
        },
        {
          "internalType": "uint256",
          "name": "_fileSize",
          "type": "uint256"
        },
        {
          "internalType": "string",
          "name": "_fileType",
          "type": "string"
        },
        {
          "internalType": "string",
          "name": "_fileName",
          "type": "string"
        },
        {
          "internalType": "string",
          "name": "_fileDescription",
          "type": "string"
        }
      ],
      "name": "addFiles",
      "outputs": [],
      "stateMutability": "nonpayable",
      "type": "function"
    },
    {
      "inputs": [
        {
          "internalType": "string",
          "name": "_platformName",
          "type": "string"
        },
        {
          "internalType": "string",
          "name": "token",
          "type": "string"
        },
        {
          "internalType": "string",
          "name": "_projectid",
          "type": "string"
        },
        {
          "internalType": "string",
          "name": "_projectsecret",
          "type": "string"
        }
      ],
      "name": "addPlatform",
      "outputs": [],
      "stateMutability": "nonpayable",
      "type": "function"
    },
    {
      "inputs": [
        {
          "internalType": "address",
          "name": "to",
          "type": "address"
        },
        {
          "internalType": "uint256",
          "name": "tokenId",
          "type": "uint256"
        }
      ],
      "name": "approve",
      "outputs": [],
      "stateMutability": "nonpayable",
      "type": "function"
    },
    {
      "inputs": [
        {
          "internalType": "address",
          "name": "owner",
          "type": "address"
        }
      ],
      "name": "balanceOf",
      "outputs": [
        {
          "internalType": "uint256",
          "name": "",
          "type": "uint256"
        }
      ],
      "stateMutability": "view",
      "type": "function"
    },
    {
      "inputs": [
        {
          "internalType": "string",
          "name": "_foldername",
          "type": "string"
        },
        {
          "internalType": "uint256",
          "name": "_platformId",
          "type": "uint256"
        }
      ],
      "name": "createFolder",
      "outputs": [],
      "stateMutability": "nonpayable",
      "type": "function"
    },
    {
      "inputs": [
        {
          "internalType": "uint256",
          "name": "tokenId",
          "type": "uint256"
        }
      ],
      "name": "createMarketSale",
      "outputs": [],
      "stateMutability": "payable",
      "type": "function"
    },
    {
      "inputs": [
        {
          "internalType": "string",
          "name": "_image",
          "type": "string"
        },
        {
          "internalType": "string",
          "name": "_profile",
          "type": "string"
        }
      ],
      "name": "createProfile",
      "outputs": [],
      "stateMutability": "nonpayable",
      "type": "function"
    },
    {
      "inputs": [
        {
          "internalType": "string",
          "name": "tokenURI",
          "type": "string"
        },
        {
          "internalType": "uint256",
          "name": "price",
          "type": "uint256"
        },
        {
          "internalType": "string",
          "name": "_name",
          "type": "string"
        },
        {
          "internalType": "string",
          "name": "_description",
          "type": "string"
        },
        {
          "internalType": "string",
          "name": "_image",
          "type": "string"
        }
      ],
      "name": "createToken",
      "outputs": [
        {
          "internalType": "uint256",
          "name": "",
          "type": "uint256"
        }
      ],
      "stateMutability": "payable",
      "type": "function"
    },
    {
      "inputs": [],
      "name": "fetchAllUsers",
      "outputs": [
        {
          "components": [
            {
              "internalType": "uint256",
              "name": "id",
              "type": "uint256"
            },
            {
              "internalType": "address payable",
              "name": "_address",
              "type": "address"
            },
            {
              "internalType": "string",
              "name": "image",
              "type": "string"
            },
            {
              "internalType": "string",
              "name": "profile",
              "type": "string"
            },
            {
              "internalType": "uint256",
              "name": "balance",
              "type": "uint256"
            }
          ],
          "internalType": "struct Decentroge.User[]",
          "name": "",
          "type": "tuple[]"
        }
      ],
      "stateMutability": "view",
      "type": "function"
    },
    {
      "inputs": [],
      "name": "fetchItemsListed",
      "outputs": [
        {
          "components": [
            {
              "internalType": "uint256",
              "name": "tokenId",
              "type": "uint256"
            },
            {
              "internalType": "address payable",
              "name": "seller",
              "type": "address"
            },
            {
              "internalType": "address payable",
              "name": "owner",
              "type": "address"
            },
            {
              "internalType": "uint256",
              "name": "price",
              "type": "uint256"
            },
            {
              "internalType": "bool",
              "name": "sold",
              "type": "bool"
            },
            {
              "internalType": "string",
              "name": "name",
              "type": "string"
            },
            {
              "internalType": "string",
              "name": "description",
              "type": "string"
            },
            {
              "internalType": "string",
              "name": "image",
              "type": "string"
            }
          ],
          "internalType": "struct Decentroge.MarketItem[]",
          "name": "",
          "type": "tuple[]"
        }
      ],
      "stateMutability": "view",
      "type": "function"
    },
    {
      "inputs": [],
      "name": "fetchMarketItems",
      "outputs": [
        {
          "components": [
            {
              "internalType": "uint256",
              "name": "tokenId",
              "type": "uint256"
            },
            {
              "internalType": "address payable",
              "name": "seller",
              "type": "address"
            },
            {
              "internalType": "address payable",
              "name": "owner",
              "type": "address"
            },
            {
              "internalType": "uint256",
              "name": "price",
              "type": "uint256"
            },
            {
              "internalType": "bool",
              "name": "sold",
              "type": "bool"
            },
            {
              "internalType": "string",
              "name": "name",
              "type": "string"
            },
            {
              "internalType": "string",
              "name": "description",
              "type": "string"
            },
            {
              "internalType": "string",
              "name": "image",
              "type": "string"
            }
          ],
          "internalType": "struct Decentroge.MarketItem[]",
          "name": "",
          "type": "tuple[]"
        }
      ],
      "stateMutability": "view",
      "type": "function"
    },
    {
      "inputs": [],
      "name": "fetchMyNFTs",
      "outputs": [
        {
          "components": [
            {
              "internalType": "uint256",
              "name": "tokenId",
              "type": "uint256"
            },
            {
              "internalType": "address payable",
              "name": "seller",
              "type": "address"
            },
            {
              "internalType": "address payable",
              "name": "owner",
              "type": "address"
            },
            {
              "internalType": "uint256",
              "name": "price",
              "type": "uint256"
            },
            {
              "internalType": "bool",
              "name": "sold",
              "type": "bool"
            },
            {
              "internalType": "string",
              "name": "name",
              "type": "string"
            },
            {
              "internalType": "string",
              "name": "description",
              "type": "string"
            },
            {
              "internalType": "string",
              "name": "image",
              "type": "string"
            }
          ],
          "internalType": "struct Decentroge.MarketItem[]",
          "name": "",
          "type": "tuple[]"
        }
      ],
      "stateMutability": "view",
      "type": "function"
    },
    {
      "inputs": [
        {
          "internalType": "address",
          "name": "",
          "type": "address"
        },
        {
          "internalType": "uint256",
          "name": "",
          "type": "uint256"
        }
      ],
      "name": "folder",
      "outputs": [
        {
          "internalType": "uint256",
          "name": "platformId",
          "type": "uint256"
        },
        {
          "internalType": "uint256",
          "name": "folderCount",
          "type": "uint256"
        },
        {
          "internalType": "uint256",
          "name": "id",
          "type": "uint256"
        },
        {
          "internalType": "string",
          "name": "folderName",
          "type": "string"
        },
        {
          "components": [
            {
              "internalType": "uint256",
              "name": "fileId",
              "type": "uint256"
            },
            {
              "internalType": "uint256",
              "name": "fileCount",
              "type": "uint256"
            },
            {
              "internalType": "string",
              "name": "fileHash",
              "type": "string"
            },
            {
              "internalType": "uint256",
              "name": "fileSize",
              "type": "uint256"
            },
            {
              "internalType": "string",
              "name": "fileType",
              "type": "string"
            },
            {
              "internalType": "string",
              "name": "fileName",
              "type": "string"
            },
            {
              "internalType": "uint256",
              "name": "folderId",
              "type": "uint256"
            },
            {
              "internalType": "string",
              "name": "fileDescription",
              "type": "string"
            },
            {
              "internalType": "uint256",
              "name": "uploadTime",
              "type": "uint256"
            },
            {
              "internalType": "address",
              "name": "sender",
              "type": "address"
            }
          ],
          "internalType": "struct Decentroge.File",
          "name": "files",
          "type": "tuple"
        },
        {
          "internalType": "address",
          "name": "owner",
          "type": "address"
        }
      ],
      "stateMutability": "view",
      "type": "function"
    },
    {
      "inputs": [
        {
          "internalType": "uint256",
          "name": "tokenId",
          "type": "uint256"
        }
      ],
      "name": "getApproved",
      "outputs": [
        {
          "internalType": "address",
          "name": "",
          "type": "address"
        }
      ],
      "stateMutability": "view",
      "type": "function"
    },
    {
      "inputs": [],
      "name": "getEthUsd",
      "outputs": [
        {
          "internalType": "uint256",
          "name": "",
          "type": "uint256"
        }
      ],
      "stateMutability": "view",
      "type": "function"
    },
    {
      "inputs": [
        {
          "internalType": "uint256",
          "name": "_folderId",
          "type": "uint256"
        }
      ],
      "name": "getFiles",
      "outputs": [
        {
          "components": [
            {
              "internalType": "uint256",
              "name": "fileId",
              "type": "uint256"
            },
            {
              "internalType": "uint256",
              "name": "fileCount",
              "type": "uint256"
            },
            {
              "internalType": "string",
              "name": "fileHash",
              "type": "string"
            },
            {
              "internalType": "uint256",
              "name": "fileSize",
              "type": "uint256"
            },
            {
              "internalType": "string",
              "name": "fileType",
              "type": "string"
            },
            {
              "internalType": "string",
              "name": "fileName",
              "type": "string"
            },
            {
              "internalType": "uint256",
              "name": "folderId",
              "type": "uint256"
            },
            {
              "internalType": "string",
              "name": "fileDescription",
              "type": "string"
            },
            {
              "internalType": "uint256",
              "name": "uploadTime",
              "type": "uint256"
            },
            {
              "internalType": "address",
              "name": "sender",
              "type": "address"
            }
          ],
          "internalType": "struct Decentroge.File[]",
          "name": "",
          "type": "tuple[]"
        }
      ],
      "stateMutability": "view",
      "type": "function"
    },
    {
      "inputs": [
        {
          "internalType": "uint256",
          "name": "_platformId",
          "type": "uint256"
        }
      ],
      "name": "getFolders",
      "outputs": [
        {
          "components": [
            {
              "internalType": "uint256",
              "name": "platformId",
              "type": "uint256"
            },
            {
              "internalType": "uint256",
              "name": "folderCount",
              "type": "uint256"
            },
            {
              "internalType": "uint256",
              "name": "id",
              "type": "uint256"
            },
            {
              "internalType": "string",
              "name": "folderName",
              "type": "string"
            },
            {
              "components": [
                {
                  "internalType": "uint256",
                  "name": "fileId",
                  "type": "uint256"
                },
                {
                  "internalType": "uint256",
                  "name": "fileCount",
                  "type": "uint256"
                },
                {
                  "internalType": "string",
                  "name": "fileHash",
                  "type": "string"
                },
                {
                  "internalType": "uint256",
                  "name": "fileSize",
                  "type": "uint256"
                },
                {
                  "internalType": "string",
                  "name": "fileType",
                  "type": "string"
                },
                {
                  "internalType": "string",
                  "name": "fileName",
                  "type": "string"
                },
                {
                  "internalType": "uint256",
                  "name": "folderId",
                  "type": "uint256"
                },
                {
                  "internalType": "string",
                  "name": "fileDescription",
                  "type": "string"
                },
                {
                  "internalType": "uint256",
                  "name": "uploadTime",
                  "type": "uint256"
                },
                {
                  "internalType": "address",
                  "name": "sender",
                  "type": "address"
                }
              ],
              "internalType": "struct Decentroge.File",
              "name": "files",
              "type": "tuple"
            },
            {
              "internalType": "address",
              "name": "owner",
              "type": "address"
            }
          ],
          "internalType": "struct Decentroge.Folder[]",
          "name": "",
          "type": "tuple[]"
        }
      ],
      "stateMutability": "view",
      "type": "function"
    },
    {
      "inputs": [],
      "name": "getListingPrice",
      "outputs": [
        {
          "internalType": "uint256",
          "name": "",
          "type": "uint256"
        }
      ],
      "stateMutability": "view",
      "type": "function"
    },
    {
      "inputs": [],
      "name": "getPlatforms",
      "outputs": [
        {
          "components": [
            {
              "internalType": "string",
              "name": "platformName",
              "type": "string"
            },
            {
              "internalType": "string",
              "name": "token",
              "type": "string"
            },
            {
              "internalType": "uint256",
              "name": "platform_id",
              "type": "uint256"
            },
            {
              "internalType": "string",
              "name": "platformid",
              "type": "string"
            },
            {
              "internalType": "string",
              "name": "platformsecret",
              "type": "string"
            },
            {
              "internalType": "uint256",
              "name": "platformCount",
              "type": "uint256"
            },
            {
              "internalType": "address",
              "name": "user",
              "type": "address"
            }
          ],
          "internalType": "struct Decentroge.Platform[]",
          "name": "",
          "type": "tuple[]"
        }
      ],
      "stateMutability": "view",
      "type": "function"
    },
    {
      "inputs": [],
      "name": "getSingleUser",
      "outputs": [
        {
          "components": [
            {
              "internalType": "uint256",
              "name": "id",
              "type": "uint256"
            },
            {
              "internalType": "address payable",
              "name": "_address",
              "type": "address"
            },
            {
              "internalType": "string",
              "name": "image",
              "type": "string"
            },
            {
              "internalType": "string",
              "name": "profile",
              "type": "string"
            },
            {
              "internalType": "uint256",
              "name": "balance",
              "type": "uint256"
            }
          ],
          "internalType": "struct Decentroge.User",
          "name": "",
          "type": "tuple"
        }
      ],
      "stateMutability": "view",
      "type": "function"
    },
    {
      "inputs": [
        {
          "internalType": "address",
          "name": "owner",
          "type": "address"
        },
        {
          "internalType": "address",
          "name": "operator",
          "type": "address"
        }
      ],
      "name": "isApprovedForAll",
      "outputs": [
        {
          "internalType": "bool",
          "name": "",
          "type": "bool"
        }
      ],
      "stateMutability": "view",
      "type": "function"
    },
    {
      "inputs": [],
      "name": "isRegistered",
      "outputs": [
        {
          "internalType": "bool",
          "name": "",
          "type": "bool"
        }
      ],
      "stateMutability": "view",
      "type": "function"
    },
    {
      "inputs": [],
      "name": "name",
      "outputs": [
        {
          "internalType": "string",
          "name": "",
          "type": "string"
        }
      ],
      "stateMutability": "view",
      "type": "function"
    },
    {
      "inputs": [
        {
          "internalType": "uint256",
          "name": "tokenId",
          "type": "uint256"
        }
      ],
      "name": "ownerOf",
      "outputs": [
        {
          "internalType": "address",
          "name": "",
          "type": "address"
        }
      ],
      "stateMutability": "view",
      "type": "function"
    },
    {
      "inputs": [
        {
          "internalType": "address",
          "name": "",
          "type": "address"
        },
        {
          "internalType": "uint256",
          "name": "",
          "type": "uint256"
        }
      ],
      "name": "platform",
      "outputs": [
        {
          "internalType": "string",
          "name": "platformName",
          "type": "string"
        },
        {
          "internalType": "string",
          "name": "token",
          "type": "string"
        },
        {
          "internalType": "uint256",
          "name": "platform_id",
          "type": "uint256"
        },
        {
          "internalType": "string",
          "name": "platformid",
          "type": "string"
        },
        {
          "internalType": "string",
          "name": "platformsecret",
          "type": "string"
        },
        {
          "internalType": "uint256",
          "name": "platformCount",
          "type": "uint256"
        },
        {
          "internalType": "address",
          "name": "user",
          "type": "address"
        }
      ],
      "stateMutability": "view",
      "type": "function"
    },
    {
      "inputs": [
        {
          "internalType": "address",
          "name": "",
          "type": "address"
        }
      ],
      "name": "registeredUsers",
      "outputs": [
        {
          "internalType": "bool",
          "name": "",
          "type": "bool"
        }
      ],
      "stateMutability": "view",
      "type": "function"
    },
    {
      "inputs": [
        {
          "internalType": "uint256",
          "name": "tokenId",
          "type": "uint256"
        },
        {
          "internalType": "uint256",
          "name": "price",
          "type": "uint256"
        }
      ],
      "name": "resellToken",
      "outputs": [],
      "stateMutability": "payable",
      "type": "function"
    },
    {
      "inputs": [
        {
          "internalType": "address",
          "name": "from",
          "type": "address"
        },
        {
          "internalType": "address",
          "name": "to",
          "type": "address"
        },
        {
          "internalType": "uint256",
          "name": "tokenId",
          "type": "uint256"
        }
      ],
      "name": "safeTransferFrom",
      "outputs": [],
      "stateMutability": "nonpayable",
      "type": "function"
    },
    {
      "inputs": [
        {
          "internalType": "address",
          "name": "from",
          "type": "address"
        },
        {
          "internalType": "address",
          "name": "to",
          "type": "address"
        },
        {
          "internalType": "uint256",
          "name": "tokenId",
          "type": "uint256"
        },
        {
          "internalType": "bytes",
          "name": "data",
          "type": "bytes"
        }
      ],
      "name": "safeTransferFrom",
      "outputs": [],
      "stateMutability": "nonpayable",
      "type": "function"
    },
    {
      "inputs": [
        {
          "internalType": "address",
          "name": "operator",
          "type": "address"
        },
        {
          "internalType": "bool",
          "name": "approved",
          "type": "bool"
        }
      ],
      "name": "setApprovalForAll",
      "outputs": [],
      "stateMutability": "nonpayable",
      "type": "function"
    },
    {
      "inputs": [
        {
          "internalType": "bytes4",
          "name": "interfaceId",
          "type": "bytes4"
        }
      ],
      "name": "supportsInterface",
      "outputs": [
        {
          "internalType": "bool",
          "name": "",
          "type": "bool"
        }
      ],
      "stateMutability": "view",
      "type": "function"
    },
    {
      "inputs": [],
      "name": "symbol",
      "outputs": [
        {
          "internalType": "string",
          "name": "",
          "type": "string"
        }
      ],
      "stateMutability": "view",
      "type": "function"
    },
    {
      "inputs": [
        {
          "internalType": "uint256",
          "name": "id",
          "type": "uint256"
        }
      ],
      "name": "tipUser",
      "outputs": [],
      "stateMutability": "payable",
      "type": "function"
    },
    {
      "inputs": [
        {
          "internalType": "uint256",
          "name": "tokenId",
          "type": "uint256"
        }
      ],
      "name": "tokenURI",
      "outputs": [
        {
          "internalType": "string",
          "name": "",
          "type": "string"
        }
      ],
      "stateMutability": "view",
      "type": "function"
    },
    {
      "inputs": [
        {
          "internalType": "address",
          "name": "from",
          "type": "address"
        },
        {
          "internalType": "address",
          "name": "to",
          "type": "address"
        },
        {
          "internalType": "uint256",
          "name": "tokenId",
          "type": "uint256"
        }
      ],
      "name": "transferFrom",
      "outputs": [],
      "stateMutability": "nonpayable",
      "type": "function"
    },
    {
      "inputs": [
        {
          "internalType": "uint256",
          "name": "_listingPrice",
          "type": "uint256"
        }
      ],
      "name": "updateListingPrice",
      "outputs": [],
      "stateMutability": "payable",
      "type": "function"
    },
    {
      "inputs": [],
      "name": "userCount",
      "outputs": [
        {
          "internalType": "uint256",
          "name": "",
          "type": "uint256"
        }
      ],
      "stateMutability": "view",
      "type": "function"
    }
  ],
  "bytecode": "0x608060405260006015556658d15e176280006016553480156200002157600080fd5b50604080518082018252601081526f4d657461766572736520546f6b656e7360801b6020808301918252835180850190945260048452631351551560e21b9084015281519192916200007691600091620000c9565b5080516200008c906001906020840190620000c9565b5050600780546001600160a01b03199081163317909155600a8054909116737bac85a8a13a4bcd8abb3eb7d6b4d632c5a5767617905550620001ac565b828054620000d7906200016f565b90600052602060002090601f016020900481019282620000fb576000855562000146565b82601f106200011657805160ff191683800117855562000146565b8280016001018555821562000146579182015b828111156200014657825182559160200191906001019062000129565b506200015492915062000158565b5090565b5b8082111562000154576000815560010162000159565b600181811c908216806200018457607f821691505b60208210811415620001a657634e487b7160e01b600052602260045260246000fd5b50919050565b61545880620001bc6000396000f3fe6080604052600436106101aa5760003560e01c806301ffc9a7146101af57806306fdde03146101e457806307973ccf14610206578063081812fc1461022a578063095ea7b3146102625780630e50cee5146102845780630f08efe0146102b457806312506f4d146102d657806312e85585146103035780631fbe552e14610318578063202e37401461033a578063223668441461034f57806323b872dd1461036457806342842e0e1461038457806345f8fa80146103a457806356a1dc7e146103b95780635b473724146103d95780636352211e146103f95780636aa444871461041957806370a082311461044b5780638865ba661461046b5780639537a1a21461048d57806395d89b41146104ad5780639e0d2da8146104c2578063a22cb465146104d5578063ae677aa3146104f5578063b829b14814610508578063b88d4fde1461053b578063ba1feb8a1461055b578063bb27e0ce1461057b578063be9af53614610590578063c3374315146105a3578063c87b56dd146105c5578063d1d8a068146105e5578063e219fc75146105f8578063e985e9c51461060b578063f179573f1461062b575b600080fd5b3480156101bb57600080fd5b506101cf6101ca366004614455565b610658565b60405190151581526020015b60405180910390f35b3480156101f057600080fd5b506101f96106aa565b6040516101db91906144ca565b34801561021257600080fd5b5061021c60155481565b6040519081526020016101db565b34801561023657600080fd5b5061024a6102453660046144dd565b61073c565b6040516001600160a01b0390911681526020016101db565b34801561026e57600080fd5b5061028261027d36600461451f565b610763565b005b34801561029057600080fd5b506101cf61029f366004614549565b600e6020526000908152604090205460ff1681565b3480156102c057600080fd5b506102c961087e565b6040516101db9190614564565b3480156102e257600080fd5b506102f66102f13660046144dd565b610bb3565b6040516101db9190614708565b34801561030f57600080fd5b5060165461021c565b34801561032457600080fd5b5061032d610f58565b6040516101db919061476a565b34801561034657600080fd5b506102c9611311565b34801561035b57600080fd5b506101cf611684565b34801561037057600080fd5b5061028261037f366004614840565b6116ad565b34801561039057600080fd5b5061028261039f366004614840565b6116de565b3480156103b057600080fd5b506102c96116f9565b3480156103c557600080fd5b506102826103d4366004614927565b611a6c565b3480156103e557600080fd5b506102826103f43660046149d3565b611c14565b34801561040557600080fd5b5061024a6104143660046144dd565b611e26565b34801561042557600080fd5b5061043961043436600461451f565b611e5b565b6040516101db96959493929190614a17565b34801561045757600080fd5b5061021c610466366004614549565b6121cb565b34801561047757600080fd5b50610480612251565b6040516101db9190614acb565b34801561049957600080fd5b506102826104a8366004614ade565b6123c7565b3480156104b957600080fd5b506101f961266e565b61021c6104d0366004614b9c565b61267d565b3480156104e157600080fd5b506102826104f0366004614c52565b6126c5565b6102826105033660046144dd565b6126d4565b34801561051457600080fd5b5061052861052336600461451f565b61274c565b6040516101db9796959493929190614c8e565b34801561054757600080fd5b50610282610556366004614d06565b6129bb565b34801561056757600080fd5b50610282610576366004614d75565b6129f3565b34801561058757600080fd5b5061021c612c3e565b61028261059e3660046144dd565b612cd1565b3480156105af57600080fd5b506105b8612e36565b6040516101db9190614dd8565b3480156105d157600080fd5b506101f96105e03660046144dd565b613058565b6102826105f33660046144dd565b613169565b610282610606366004614e2d565b613252565b34801561061757600080fd5b506101cf610626366004614e4f565b61334a565b34801561063757600080fd5b5061064b6106463660046144dd565b613378565b6040516101db9190614e82565b60006001600160e01b031982166380ac58cd60e01b148061068957506001600160e01b03198216635b5e139f60e01b145b806106a457506301ffc9a760e01b6001600160e01b03198316145b92915050565b6060600080546106b990614f2f565b80601f01602080910402602001604051908101604052809291908181526020018280546106e590614f2f565b80156107325780601f1061070757610100808354040283529160200191610732565b820191906000526020600020905b81548152906001019060200180831161071557829003601f168201915b5050505050905090565b600061074782613830565b506000908152600460205260409020546001600160a01b031690565b600061076e82611e26565b9050806001600160a01b0316836001600160a01b031614156107e15760405162461bcd60e51b815260206004820152602160248201527f4552433732313a20617070726f76616c20746f2063757272656e74206f776e656044820152603960f91b60648201526084015b60405180910390fd5b336001600160a01b03821614806107fd57506107fd813361334a565b61086f5760405162461bcd60e51b815260206004820152603e60248201527f4552433732313a20617070726f76652063616c6c6572206973206e6f7420746f60448201527f6b656e206f776e6572206e6f7220617070726f76656420666f7220616c6c000060648201526084016107d8565b6108798383613858565b505050565b6060600061088b60085490565b9050600061089860095490565b6008546108a59190614f80565b9050600080826001600160401b038111156108c2576108c261487c565b6040519080825280602002602001820160405280156108fb57816020015b6108e8614202565b8152602001906001900390816108e05790505b50905060005b84811015610baa5730600b6000610919846001614f97565b81526020810191909152604001600020600201546001600160a01b03161415610b98576000610949826001614f97565b6000818152600b60209081526040918290208251610100810184528154815260018201546001600160a01b039081169382019390935260028201549092169282019290925260038201546060820152600482015460ff161515608082015260058201805493945091929091839160a0840191906109c590614f2f565b80601f01602080910402602001604051908101604052809291908181526020018280546109f190614f2f565b8015610a3e5780601f10610a1357610100808354040283529160200191610a3e565b820191906000526020600020905b815481529060010190602001808311610a2157829003601f168201915b50505050508152602001600682018054610a5790614f2f565b80601f0160208091040260200160405190810160405280929190818152602001828054610a8390614f2f565b8015610ad05780601f10610aa557610100808354040283529160200191610ad0565b820191906000526020600020905b815481529060010190602001808311610ab357829003601f168201915b50505050508152602001600782018054610ae990614f2f565b80601f0160208091040260200160405190810160405280929190818152602001828054610b1590614f2f565b8015610b625780601f10610b3757610100808354040283529160200191610b62565b820191906000526020600020905b815481529060010190602001808311610b4557829003601f168201915b505050505081525050848681518110610b7d57610b7d614faf565b6020908102919091010152610b93600186614f97565b945050505b80610ba281614fc5565b915050610901565b50949350505050565b600081815260126020908152604080832033845260108352818420858552835281842054845290915281206001015460609180826001600160401b03811115610bfe57610bfe61487c565b604051908082528060200260200182016040528015610c3757816020015b610c2461425b565b815260200190600190039081610c1c5790505b50905060005b83811015610baa576000610c52826001614f97565b90506000601260008981526020019081526020016000206000838152602001908152602001600020905080604051806101400160405290816000820154815260200160018201548152602001600282018054610cad90614f2f565b80601f0160208091040260200160405190810160405280929190818152602001828054610cd990614f2f565b8015610d265780601f10610cfb57610100808354040283529160200191610d26565b820191906000526020600020905b815481529060010190602001808311610d0957829003601f168201915b5050505050815260200160038201548152602001600482018054610d4990614f2f565b80601f0160208091040260200160405190810160405280929190818152602001828054610d7590614f2f565b8015610dc25780601f10610d9757610100808354040283529160200191610dc2565b820191906000526020600020905b815481529060010190602001808311610da557829003601f168201915b50505050508152602001600582018054610ddb90614f2f565b80601f0160208091040260200160405190810160405280929190818152602001828054610e0790614f2f565b8015610e545780601f10610e2957610100808354040283529160200191610e54565b820191906000526020600020905b815481529060010190602001808311610e3757829003601f168201915b5050505050815260200160068201548152602001600782018054610e7790614f2f565b80601f0160208091040260200160405190810160405280929190818152602001828054610ea390614f2f565b8015610ef05780601f10610ec557610100808354040283529160200191610ef0565b820191906000526020600020905b815481529060010190602001808311610ed357829003601f168201915b5050509183525050600882015460208201526009909101546001600160a01b03166040909101528451859087908110610f2b57610f2b614faf565b6020908102919091010152610f41600186614f97565b945050508080610f5090614fc5565b915050610c3d565b336000908152600c602090815260408083206011835281842054845290915281206005015460609180826001600160401b03811115610f9957610f9961487c565b60405190808252806020026020018201604052801561101357816020015b6110006040518060e0016040528060608152602001606081526020016000815260200160608152602001606081526020016000815260200160006001600160a01b031681525090565b815260200190600190039081610fb75790505b50905060005b8381101561130957600061102e826001614f97565b336000908152600c6020908152604080832084845290915290819020815160e0810190925280549293509182908290829061106890614f2f565b80601f016020809104026020016040519081016040528092919081815260200182805461109490614f2f565b80156110e15780601f106110b6576101008083540402835291602001916110e1565b820191906000526020600020905b8154815290600101906020018083116110c457829003601f168201915b505050505081526020016001820180546110fa90614f2f565b80601f016020809104026020016040519081016040528092919081815260200182805461112690614f2f565b80156111735780601f1061114857610100808354040283529160200191611173565b820191906000526020600020905b81548152906001019060200180831161115657829003601f168201915b505050505081526020016002820154815260200160038201805461119690614f2f565b80601f01602080910402602001604051908101604052809291908181526020018280546111c290614f2f565b801561120f5780601f106111e45761010080835404028352916020019161120f565b820191906000526020600020905b8154815290600101906020018083116111f257829003601f168201915b5050505050815260200160048201805461122890614f2f565b80601f016020809104026020016040519081016040528092919081815260200182805461125490614f2f565b80156112a15780601f10611276576101008083540402835291602001916112a1565b820191906000526020600020905b81548152906001019060200180831161128457829003601f168201915b5050509183525050600582015460208201526006909101546001600160a01b031660409091015284518590879081106112dc576112dc614faf565b60209081029190910101526112f2600186614f97565b94505050808061130190614fc5565b915050611019565b509392505050565b6060600061131e60085490565b905060008060005b838110156113815733600b600061133e846001614f97565b81526020810191909152604001600020600201546001600160a01b0316141561136f5761136c600184614f97565b92505b8061137981614fc5565b915050611326565b506000826001600160401b0381111561139c5761139c61487c565b6040519080825280602002602001820160405280156113d557816020015b6113c2614202565b8152602001906001900390816113ba5790505b50905060005b84811015610baa5733600b60006113f3846001614f97565b81526020810191909152604001600020600201546001600160a01b03161415611672576000611423826001614f97565b6000818152600b60209081526040918290208251610100810184528154815260018201546001600160a01b039081169382019390935260028201549092169282019290925260038201546060820152600482015460ff161515608082015260058201805493945091929091839160a08401919061149f90614f2f565b80601f01602080910402602001604051908101604052809291908181526020018280546114cb90614f2f565b80156115185780601f106114ed57610100808354040283529160200191611518565b820191906000526020600020905b8154815290600101906020018083116114fb57829003601f168201915b5050505050815260200160068201805461153190614f2f565b80601f016020809104026020016040519081016040528092919081815260200182805461155d90614f2f565b80156115aa5780601f1061157f576101008083540402835291602001916115aa565b820191906000526020600020905b81548152906001019060200180831161158d57829003601f168201915b505050505081526020016007820180546115c390614f2f565b80601f01602080910402602001604051908101604052809291908181526020018280546115ef90614f2f565b801561163c5780601f106116115761010080835404028352916020019161163c565b820191906000526020600020905b81548152906001019060200180831161161f57829003601f168201915b50505050508152505084868151811061165757611657614faf565b602090810291909101015261166d600186614f97565b945050505b8061167c81614fc5565b9150506113db565b336000908152600e602052604081205460ff161515600114156116a75750600190565b50600090565b6116b733826138c6565b6116d35760405162461bcd60e51b81526004016107d890614fe0565b610879838383613924565b610879838383604051806020016040528060008152506129bb565b6060600061170660085490565b905060008060005b838110156117695733600b6000611726846001614f97565b81526020810191909152604001600020600101546001600160a01b0316141561175757611754600184614f97565b92505b8061176181614fc5565b91505061170e565b506000826001600160401b038111156117845761178461487c565b6040519080825280602002602001820160405280156117bd57816020015b6117aa614202565b8152602001906001900390816117a25790505b50905060005b84811015610baa5733600b60006117db846001614f97565b81526020810191909152604001600020600101546001600160a01b03161415611a5a57600061180b826001614f97565b6000818152600b60209081526040918290208251610100810184528154815260018201546001600160a01b039081169382019390935260028201549092169282019290925260038201546060820152600482015460ff161515608082015260058201805493945091929091839160a08401919061188790614f2f565b80601f01602080910402602001604051908101604052809291908181526020018280546118b390614f2f565b80156119005780601f106118d557610100808354040283529160200191611900565b820191906000526020600020905b8154815290600101906020018083116118e357829003601f168201915b5050505050815260200160068201805461191990614f2f565b80601f016020809104026020016040519081016040528092919081815260200182805461194590614f2f565b80156119925780601f1061196757610100808354040283529160200191611992565b820191906000526020600020905b81548152906001019060200180831161197557829003601f168201915b505050505081526020016007820180546119ab90614f2f565b80601f01602080910402602001604051908101604052809291908181526020018280546119d790614f2f565b8015611a245780601f106119f957610100808354040283529160200191611a24565b820191906000526020600020905b815481529060010190602001808311611a0757829003601f168201915b505050505081525050848681518110611a3f57611a3f614faf565b6020908102919091010152611a55600186614f97565b945050505b80611a6481614fc5565b9150506117c3565b33600090815260116020526040902054611a87906001614f97565b336000908152601160209081526040808320849055600c825280832093835292815291902085519091611abe9183918801906142b7565b508351611ad490600183019060208701906142b7565b50336000908152601160209081526040909120546002830181905560058301558351611b08916003840191908601906142b7565b508151611b1e90600483019060208501906142b7565b506006810180546001600160a01b031916339081179091556000908152600c60209081526040808320601183528184205484529091529020815482919081908390611b6890614f2f565b611b7392919061433b565b506001820181600101908054611b8890614f2f565b611b9392919061433b565b50600282015481600201556003820181600301908054611bb290614f2f565b611bbd92919061433b565b506004820181600401908054611bd290614f2f565b611bdd92919061433b565b5060058281015490820155600691820154910180546001600160a01b0319166001600160a01b039092169190911790555050505050565b336000908152600f6020526040902054611c2f906001614f97565b336000818152600f60208181526040808420869055600d82528084208685528252832093909252815260028201839055600182019290925583519091611c7c9160038401918601906142b7565b50818155600e810180546001600160a01b031916339081179091556000908152600d60209081526040808320600f8352818420548452909152902082815560018083015490820155600280830154908201556003808301805484939283019190611ce590614f2f565b611cf092919061433b565b50600482018160040160008201548160000155600182015481600101556002820181600201908054611d2190614f2f565b611d2c92919061433b565b50600382015481600301556004820181600401908054611d4b90614f2f565b611d5692919061433b565b506005820181600501908054611d6b90614f2f565b611d7692919061433b565b50600682015481600601556007820181600701908054611d9590614f2f565b611da092919061433b565b5060088281015490820155600991820154910180546001600160a01b03199081166001600160a01b0393841617909155600e93840154929093018054909316911617905560018101546040517f1ab1e3deaf766b73268be743e461b11f32921eb946d2315530de558762601aba90611e199086906144ca565b60405180910390a2505050565b6000818152600260205260408120546001600160a01b0316806106a45760405162461bcd60e51b81526004016107d89061502e565b600d60205281600052604060002060205280600052604060002060009150915050806000015490806001015490806002015490806003018054611e9d90614f2f565b80601f0160208091040260200160405190810160405280929190818152602001828054611ec990614f2f565b8015611f165780601f10611eeb57610100808354040283529160200191611f16565b820191906000526020600020905b815481529060010190602001808311611ef957829003601f168201915b50505050509080600401604051806101400160405290816000820154815260200160018201548152602001600282018054611f5090614f2f565b80601f0160208091040260200160405190810160405280929190818152602001828054611f7c90614f2f565b8015611fc95780601f10611f9e57610100808354040283529160200191611fc9565b820191906000526020600020905b815481529060010190602001808311611fac57829003601f168201915b5050505050815260200160038201548152602001600482018054611fec90614f2f565b80601f016020809104026020016040519081016040528092919081815260200182805461201890614f2f565b80156120655780601f1061203a57610100808354040283529160200191612065565b820191906000526020600020905b81548152906001019060200180831161204857829003601f168201915b5050505050815260200160058201805461207e90614f2f565b80601f01602080910402602001604051908101604052809291908181526020018280546120aa90614f2f565b80156120f75780601f106120cc576101008083540402835291602001916120f7565b820191906000526020600020905b8154815290600101906020018083116120da57829003601f168201915b505050505081526020016006820154815260200160078201805461211a90614f2f565b80601f016020809104026020016040519081016040528092919081815260200182805461214690614f2f565b80156121935780601f1061216857610100808354040283529160200191612193565b820191906000526020600020905b81548152906001019060200180831161217657829003601f168201915b5050509183525050600882015460208201526009909101546001600160a01b03908116604090920191909152600e9092015490911686565b60006001600160a01b0382166122355760405162461bcd60e51b815260206004820152602960248201527f4552433732313a2061646472657373207a65726f206973206e6f7420612076616044820152683634b21037bbb732b960b91b60648201526084016107d8565b506001600160a01b031660009081526003602052604090205490565b6122596143b6565b33600090815260146020908152604091829020825160a0810184528154815260018201546001600160a01b03169281019290925260028101805492939192918401916122a490614f2f565b80601f01602080910402602001604051908101604052809291908181526020018280546122d090614f2f565b801561231d5780601f106122f25761010080835404028352916020019161231d565b820191906000526020600020905b81548152906001019060200180831161230057829003601f168201915b5050505050815260200160038201805461233690614f2f565b80601f016020809104026020016040519081016040528092919081815260200182805461236290614f2f565b80156123af5780601f10612384576101008083540402835291602001916123af565b820191906000526020600020905b81548152906001019060200180831161239257829003601f168201915b50505050508152602001600482015481525050905090565b60008551116123d557600080fd5b60008351116123e357600080fd5b60008251116123f157600080fd5b600084116123fe57600080fd5b336000908152601060209081526040808320898452909152902054612424906001614f97565b3360009081526010602090815260408083208a8452808352818420859055601283528184208585528352908320848155928a905281526001820192909255865190916124779160028401918901906142b7565b5060038101859055835161249490600483019060208701906142b7565b5082516124aa90600583019060208601906142b7565b506006810187905581516124c790600783019060208501906142b7565b504260088201556009810180546001600160a01b031916339081179091556000888152601260209081526040808320938352601082528083208b84528252808320548352929052208154815560018083015490820155600280830180548493928301919061253490614f2f565b61253f92919061433b565b5060038201548160030155600482018160040190805461255e90614f2f565b61256992919061433b565b50600582018160050190805461257e90614f2f565b61258992919061433b565b506006820154816006015560078201816007019080546125a890614f2f565b6125b392919061433b565b50600882015481600801556009820160009054906101000a90046001600160a01b03168160090160006101000a8154816001600160a01b0302191690836001600160a01b0316021790555090505080600001547f46255e5a47f8c7a10e17fb87e1d3d448ee6c4f8b4ee53f30d5263acdf2d8c9fd826001015483600201846003015485600401866005018d8860070189600801543360405161265d99989796959493929190615100565b60405180910390a250505050505050565b6060600180546106b990614f2f565b600061268d600880546001019055565b600061269860085490565b90506126a43382613aae565b6126ae8188613bce565b6126bb8187878787613c59565b9695505050505050565b6126d0338383613e14565b5050565b6007546001600160a01b031633146127475760405162461bcd60e51b815260206004820152603060248201527f4f6e6c79206d61726b6574706c616365206f776e65722063616e20757064617460448201526f32903634b9ba34b73390383934b1b29760811b60648201526084016107d8565b601655565b600c60209081526000928352604080842090915290825290208054819061277290614f2f565b80601f016020809104026020016040519081016040528092919081815260200182805461279e90614f2f565b80156127eb5780601f106127c0576101008083540402835291602001916127eb565b820191906000526020600020905b8154815290600101906020018083116127ce57829003601f168201915b50505050509080600101805461280090614f2f565b80601f016020809104026020016040519081016040528092919081815260200182805461282c90614f2f565b80156128795780601f1061284e57610100808354040283529160200191612879565b820191906000526020600020905b81548152906001019060200180831161285c57829003601f168201915b50505050509080600201549080600301805461289490614f2f565b80601f01602080910402602001604051908101604052809291908181526020018280546128c090614f2f565b801561290d5780601f106128e25761010080835404028352916020019161290d565b820191906000526020600020905b8154815290600101906020018083116128f057829003601f168201915b50505050509080600401805461292290614f2f565b80601f016020809104026020016040519081016040528092919081815260200182805461294e90614f2f565b801561299b5780601f106129705761010080835404028352916020019161299b565b820191906000526020600020905b81548152906001019060200180831161297e57829003601f168201915b5050505060058301546006909301549192916001600160a01b0316905087565b6129c533836138c6565b6129e15760405162461bcd60e51b81526004016107d890614fe0565b6129ed84848484613edf565b50505050565b336000908152600e602052604090205460ff166126d05760158054906000612a1a83614fc5565b909155505060155460008181526013602090815260408083203380855260148452919093209383556001830180546001600160a01b03191690911790558451919291612a6e916002850191908701906142b7565b508251612a8490600384019060208601906142b7565b50600060048301819055338152600e60209081526040909120805460ff1916600117905560155482558451612ac1916002840191908701906142b7565b508251612ad790600383019060208601906142b7565b5060018181018054336001600160a01b031991821681178355600090815260146020526040902084548155915492820180546001600160a01b0390941693909116929092179091556002808301805484939283019190612b3690614f2f565b612b4192919061433b565b506003820181600301908054612b5690614f2f565b612b6192919061433b565b5060049182015491015560155460009081526013602052604090208254815560018084015490820180546001600160a01b0319166001600160a01b039092169190911790556002808401805485939283019190612bbd90614f2f565b612bc892919061433b565b506003820181600301908054612bdd90614f2f565b612be892919061433b565b50600491820154908201558254908301546040517f5e192e8247ce4e588ce081d0ffddb155d0cccf25bb8d2de0f4a6fcb18ccbd4f092612c309290913391899189919061518a565b60405180910390a150505050565b600080600a60009054906101000a90046001600160a01b03166001600160a01b031663feaf968c6040518163ffffffff1660e01b815260040160a06040518083038186803b158015612c8f57600080fd5b505afa158015612ca3573d6000803e3d6000fd5b505050506040513d601f19601f82011682018060405250810190612cc791906151f0565b5050509150505090565b6000818152600b6020526040902060038101546001909101546001600160a01b0316348214612d6a576040805162461bcd60e51b81526020600482015260248101919091527f506c65617365207375626d6974207468652061736b696e67207072696365206960448201527f6e206f7264657220746f20636f6d706c6574652074686520707572636861736560648201526084016107d8565b6000838152600b602052604090206002810180546001600160a01b0319908116331790915560048201805460ff1916600190811790915590910180549091169055612db9600980546001019055565b612dc4303385613924565b6007546016546040516001600160a01b039092169181156108fc0291906000818181858888f19350505050158015612e00573d6000803e3d6000fd5b506040516001600160a01b038216903480156108fc02916000818181858888f193505050501580156129ed573d6000803e3d6000fd5b601554606090600080826001600160401b03811115612e5757612e5761487c565b604051908082528060200260200182016040528015612e9057816020015b612e7d6143b6565b815260200190600190039081612e755790505b50905060005b83811015611309576000612eab826001614f97565b600081815260136020908152604091829020825160a0810184528154815260018201546001600160a01b0316928101929092526002810180549495509093919284929084019190612efb90614f2f565b80601f0160208091040260200160405190810160405280929190818152602001828054612f2790614f2f565b8015612f745780601f10612f4957610100808354040283529160200191612f74565b820191906000526020600020905b815481529060010190602001808311612f5757829003601f168201915b50505050508152602001600382018054612f8d90614f2f565b80601f0160208091040260200160405190810160405280929190818152602001828054612fb990614f2f565b80156130065780601f10612fdb57610100808354040283529160200191613006565b820191906000526020600020905b815481529060010190602001808311612fe957829003601f168201915b5050505050815260200160048201548152505084868151811061302b5761302b614faf565b6020908102919091010152613041600186614f97565b94505050808061305090614fc5565b915050612e96565b606061306382613830565b6000828152600660205260408120805461307c90614f2f565b80601f01602080910402602001604051908101604052809291908181526020018280546130a890614f2f565b80156130f55780601f106130ca576101008083540402835291602001916130f5565b820191906000526020600020905b8154815290600101906020018083116130d857829003601f168201915b50505050509050600061311360408051602081019091526000815290565b9050805160001415613126575092915050565b815115613158578082604051602001613140929190615240565b60405160208183030381529060405292505050919050565b61316184613f12565b949350505050565b6000818152601360205260408082206001810154915190926001600160a01b03909216913480156108fc02929091818181858888f193505050501580156131b4573d6000803e3d6000fd5b503481600401546131c59190614f97565b600482015560008281526013602052604090208154815560018083015490820180546001600160a01b0319166001600160a01b03909216919091179055600280830180548493928301919061321990614f2f565b61322492919061433b565b50600382018160030190805461323990614f2f565b61324492919061433b565b506004918201549101555050565b6000828152600b60205260409020600201546001600160a01b031633146132ce5760405162461bcd60e51b815260206004820152602a60248201527f4f6e6c79206974656d206f776e65722063616e20706572666f726d20746869736044820152691037b832b930ba34b7b760b11b60648201526084016107d8565b60165434146132ef5760405162461bcd60e51b81526004016107d89061526f565b6000828152600b6020526040902060048101805460ff19169055600381018290556001810180546001600160a01b03199081163317909155600290910180549091163017905561333f6009613f86565b6126d0333084613924565b6001600160a01b03918216600090815260056020908152604080832093909416825291909152205460ff1690565b336000908152600d60209081526040808320600f835281842054845290915281206001015460609180826001600160401b038111156133b9576133b961487c565b6040519080825280602002602001820160405280156133f257816020015b6133df6143ee565b8152602001906001900390816133d75790505b50905060005b83811015610baa57336000908152600d60205260408120879161341c846001614f97565b815260200190815260200160002060000154141561381e576000613441826001614f97565b90506000600d6000336001600160a01b03166001600160a01b0316815260200190815260200160002060008381526020019081526020016000209050806040518060c00160405290816000820154815260200160018201548152602001600282015481526020016003820180546134b790614f2f565b80601f01602080910402602001604051908101604052809291908181526020018280546134e390614f2f565b80156135305780601f1061350557610100808354040283529160200191613530565b820191906000526020600020905b81548152906001019060200180831161351357829003601f168201915b505050505081526020016004820160405180610140016040529081600082015481526020016001820154815260200160028201805461356e90614f2f565b80601f016020809104026020016040519081016040528092919081815260200182805461359a90614f2f565b80156135e75780601f106135bc576101008083540402835291602001916135e7565b820191906000526020600020905b8154815290600101906020018083116135ca57829003601f168201915b505050505081526020016003820154815260200160048201805461360a90614f2f565b80601f016020809104026020016040519081016040528092919081815260200182805461363690614f2f565b80156136835780601f1061365857610100808354040283529160200191613683565b820191906000526020600020905b81548152906001019060200180831161366657829003601f168201915b5050505050815260200160058201805461369c90614f2f565b80601f01602080910402602001604051908101604052809291908181526020018280546136c890614f2f565b80156137155780601f106136ea57610100808354040283529160200191613715565b820191906000526020600020905b8154815290600101906020018083116136f857829003601f168201915b505050505081526020016006820154815260200160078201805461373890614f2f565b80601f016020809104026020016040519081016040528092919081815260200182805461376490614f2f565b80156137b15780601f10613786576101008083540402835291602001916137b1565b820191906000526020600020905b81548152906001019060200180831161379457829003601f168201915b505050918352505060088201546020808301919091526009909201546001600160a01b03908116604090920191909152918352600e939093015416910152845185908790811061380357613803614faf565b6020908102919091010152613819600186614f97565b945050505b8061382881614fc5565b9150506133f8565b61383981613fdb565b6138555760405162461bcd60e51b81526004016107d89061502e565b50565b600081815260046020526040902080546001600160a01b0319166001600160a01b038416908117909155819061388d82611e26565b6001600160a01b03167f8c5be1e5ebec7d5bd14f71427d1e84f3dd0314c0f7b2291e5b200ac8c7c3b92560405160405180910390a45050565b6000806138d283611e26565b9050806001600160a01b0316846001600160a01b031614806138f957506138f9818561334a565b806131615750836001600160a01b03166139128461073c565b6001600160a01b031614949350505050565b826001600160a01b031661393782611e26565b6001600160a01b03161461399b5760405162461bcd60e51b815260206004820152602560248201527f4552433732313a207472616e736665722066726f6d20696e636f72726563742060448201526437bbb732b960d91b60648201526084016107d8565b6001600160a01b0382166139fd5760405162461bcd60e51b8152602060048201526024808201527f4552433732313a207472616e7366657220746f20746865207a65726f206164646044820152637265737360e01b60648201526084016107d8565b613a08600082613858565b6001600160a01b0383166000908152600360205260408120805460019290613a31908490614f80565b90915550506001600160a01b0382166000908152600360205260408120805460019290613a5f908490614f97565b909155505060008181526002602052604080822080546001600160a01b0319166001600160a01b03868116918217909255915184939187169160008051602061540383398151915291a4505050565b6001600160a01b038216613b045760405162461bcd60e51b815260206004820181905260248201527f4552433732313a206d696e7420746f20746865207a65726f206164647265737360448201526064016107d8565b613b0d81613fdb565b15613b595760405162461bcd60e51b815260206004820152601c60248201527b115490cdcc8c4e881d1bdad95b88185b1c9958591e481b5a5b9d195960221b60448201526064016107d8565b6001600160a01b0382166000908152600360205260408120805460019290613b82908490614f97565b909155505060008181526002602052604080822080546001600160a01b0319166001600160a01b0386169081179091559051839290600080516020615403833981519152908290a45050565b613bd782613fdb565b613c3a5760405162461bcd60e51b815260206004820152602e60248201527f45524337323155524953746f726167653a2055524920736574206f66206e6f6e60448201526d32bc34b9ba32b73a103a37b5b2b760911b60648201526084016107d8565b60008281526006602090815260409091208251610879928401906142b7565b60008411613ca85760405162461bcd60e51b815260206004820152601c60248201527b5072696365206d757374206265206174206c6561737420312077656960201b60448201526064016107d8565b6016543414613cc95760405162461bcd60e51b81526004016107d89061526f565b6040805161010081018252868152336020808301918252308385019081526060840189815260006080860181815260a087018b815260c088018b905260e088018a90528d8352600b8652979091208651815594516001860180546001600160a01b03199081166001600160a01b039384161790915593516002870180549095169116179092555160038401555160048301805460ff19169115159190911790559251805192939192613d8192600585019201906142b7565b5060c08201518051613d9d9160068401916020909101906142b7565b5060e08201518051613db99160078401916020909101906142b7565b50905050613dc8333087613924565b847f92d5fdcbed7ff2adc67c1a3e81b1f62968651ced121e6ea00b2a9edbf1882d603330876000888888604051613e0597969594939291906152b3565b60405180910390a25050505050565b816001600160a01b0316836001600160a01b03161415613e725760405162461bcd60e51b815260206004820152601960248201527822a9219b99189d1030b8383937bb32903a379031b0b63632b960391b60448201526064016107d8565b6001600160a01b03838116600081815260056020908152604080832094871680845294825291829020805460ff191686151590811790915591519182527f17307eab39ab6107e8899845ad3d59bd9653f200f220920489ca2b5937696c31910160405180910390a3505050565b613eea848484613924565b613ef684848484613ff8565b6129ed5760405162461bcd60e51b81526004016107d890615322565b6060613f1d82613830565b6000613f3460408051602081019091526000815290565b90506000815111613f545760405180602001604052806000815250613f7f565b80613f5e84614105565b604051602001613f6f929190615240565b6040516020818303038152906040525b9392505050565b805480613fd35760405162461bcd60e51b815260206004820152601b60248201527a436f756e7465723a2064656372656d656e74206f766572666c6f7760281b60448201526064016107d8565b600019019055565b6000908152600260205260409020546001600160a01b0316151590565b60006001600160a01b0384163b156140fa57604051630a85bd0160e11b81526001600160a01b0385169063150b7a029061403c903390899088908890600401615374565b602060405180830381600087803b15801561405657600080fd5b505af1925050508015614086575060408051601f3d908101601f19168201909252614083918101906153a7565b60015b6140e0573d8080156140b4576040519150601f19603f3d011682016040523d82523d6000602084013e6140b9565b606091505b5080516140d85760405162461bcd60e51b81526004016107d890615322565b805181602001fd5b6001600160e01b031916630a85bd0160e11b149050613161565b506001949350505050565b6060816141295750506040805180820190915260018152600360fc1b602082015290565b8160005b8115614153578061413d81614fc5565b915061414c9050600a836153da565b915061412d565b6000816001600160401b0381111561416d5761416d61487c565b6040519080825280601f01601f191660200182016040528015614197576020820181803683370190505b5090505b8415613161576141ac600183614f80565b91506141b9600a866153ee565b6141c4906030614f97565b60f81b8183815181106141d9576141d9614faf565b60200101906001600160f81b031916908160001a9053506141fb600a866153da565b945061419b565b6040518061010001604052806000815260200160006001600160a01b0316815260200160006001600160a01b03168152602001600081526020016000151581526020016060815260200160608152602001606081525090565b60405180610140016040528060008152602001600081526020016060815260200160008152602001606081526020016060815260200160008152602001606081526020016000815260200160006001600160a01b031681525090565b8280546142c390614f2f565b90600052602060002090601f0160209004810192826142e5576000855561432b565b82601f106142fe57805160ff191683800117855561432b565b8280016001018555821561432b579182015b8281111561432b578251825591602001919060010190614310565b5061433792915061442a565b5090565b82805461434790614f2f565b90600052602060002090601f016020900481019282614369576000855561432b565b82601f1061437a578054855561432b565b8280016001018555821561432b57600052602060002091601f016020900482015b8281111561432b57825482559160010191906001019061439b565b6040518060a001604052806000815260200160006001600160a01b031681526020016060815260200160608152602001600081525090565b6040518060c001604052806000815260200160008152602001600081526020016060815260200161441d61425b565b8152600060209091015290565b5b80821115614337576000815560010161442b565b6001600160e01b03198116811461385557600080fd5b60006020828403121561446757600080fd5b8135613f7f8161443f565b60005b8381101561448d578181015183820152602001614475565b838111156129ed5750506000910152565b600081518084526144b6816020860160208601614472565b601f01601f19169290920160200192915050565b602081526000613f7f602083018461449e565b6000602082840312156144ef57600080fd5b5035919050565b6001600160a01b03169052565b80356001600160a01b038116811461451a57600080fd5b919050565b6000806040838503121561453257600080fd5b61453b83614503565b946020939093013593505050565b60006020828403121561455b57600080fd5b613f7f82614503565b60006020808301818452808551808352604092508286019150828160051b87010184880160005b8381101561464257603f19898403018552815161010081518552888201516145b58a8701826144f6565b50878201516145c6898701826144f6565b506060828101519086015260808083015115159086015260a0808301518187018390526145f58388018261449e565b9250505060c08083015186830382880152614610838261449e565b9250505060e0808301519250858203818701525061462e818361449e565b96890196945050509086019060010161458b565b509098975050505050505050565b60006101408251845260208301516020850152604083015181604086015261467a8286018261449e565b915050606083015160608501526080830151848203608086015261469e828261449e565b91505060a083015184820360a08601526146b8828261449e565b91505060c083015160c085015260e083015184820360e08601526146dc828261449e565b915050610100808401518186015250610120808401516146fe828701826144f6565b5090949350505050565b6000602080830181845280855180835260408601915060408160051b870101925083870160005b8281101561475d57603f1988860301845261474b858351614650565b9450928501929085019060010161472f565b5092979650505050505050565b60006020808301818452808551808352604092508286019150828160051b87010184880160005b8381101561464257603f19898403018552815160e081518186526147b78287018261449e565b915050888201518582038a8701526147cf828261449e565b9150508782015188860152606080830151868303828801526147f1838261449e565b925050506080808301518683038288015261480c838261449e565b60a0858101519089015260c0948501516001600160a01b031694909701939093525050509386019390860190600101614791565b60008060006060848603121561485557600080fd5b61485e84614503565b925061486c60208501614503565b9150604084013590509250925092565b634e487b7160e01b600052604160045260246000fd5b60006001600160401b03808411156148ac576148ac61487c565b604051601f8501601f19908116603f011681019082821181831017156148d4576148d461487c565b816040528093508581528686860111156148ed57600080fd5b858560208301376000602087830101525050509392505050565b600082601f83011261491857600080fd5b613f7f83833560208501614892565b6000806000806080858703121561493d57600080fd5b84356001600160401b038082111561495457600080fd5b61496088838901614907565b9550602087013591508082111561497657600080fd5b61498288838901614907565b9450604087013591508082111561499857600080fd5b6149a488838901614907565b935060608701359150808211156149ba57600080fd5b506149c787828801614907565b91505092959194509250565b600080604083850312156149e657600080fd5b82356001600160401b038111156149fc57600080fd5b614a0885828601614907565b95602094909401359450505050565b86815285602082015284604082015260c060608201526000614a3c60c083018661449e565b8281036080840152614a4e8186614650565b91505060018060a01b03831660a0830152979650505050505050565b8051825260018060a01b0360208201511660208301526000604082015160a06040850152614a9b60a085018261449e565b905060608301518482036060860152614ab4828261449e565b915050608083015160808501528091505092915050565b602081526000613f7f6020830184614a6a565b60008060008060008060c08789031215614af757600080fd5b8635955060208701356001600160401b0380821115614b1557600080fd5b614b218a838b01614907565b9650604089013595506060890135915080821115614b3e57600080fd5b614b4a8a838b01614907565b94506080890135915080821115614b6057600080fd5b614b6c8a838b01614907565b935060a0890135915080821115614b8257600080fd5b50614b8f89828a01614907565b9150509295509295509295565b600080600080600060a08688031215614bb457600080fd5b85356001600160401b0380821115614bcb57600080fd5b614bd789838a01614907565b9650602088013595506040880135915080821115614bf457600080fd5b614c0089838a01614907565b94506060880135915080821115614c1657600080fd5b614c2289838a01614907565b93506080880135915080821115614c3857600080fd5b50614c4588828901614907565b9150509295509295909350565b60008060408385031215614c6557600080fd5b614c6e83614503565b915060208301358015158114614c8357600080fd5b809150509250929050565b60e081526000614ca160e083018a61449e565b8281036020840152614cb3818a61449e565b90508760408401528281036060840152614ccd818861449e565b90508281036080840152614ce1818761449e565b60a084019590955250506001600160a01b039190911660c09091015295945050505050565b60008060008060808587031215614d1c57600080fd5b614d2585614503565b9350614d3360208601614503565b92506040850135915060608501356001600160401b03811115614d5557600080fd5b8501601f81018713614d6657600080fd5b6149c787823560208401614892565b60008060408385031215614d8857600080fd5b82356001600160401b0380821115614d9f57600080fd5b614dab86838701614907565b93506020850135915080821115614dc157600080fd5b50614dce85828601614907565b9150509250929050565b6000602080830181845280855180835260408601915060408160051b870101925083870160005b8281101561475d57603f19888603018452614e1b858351614a6a565b94509285019290850190600101614dff565b60008060408385031215614e4057600080fd5b50508035926020909101359150565b60008060408385031215614e6257600080fd5b614e6b83614503565b9150614e7960208401614503565b90509250929050565b60006020808301818452808551808352604092508286019150828160051b87010184880160005b8381101561464257603f19898403018552815160c081518552888201518986015287820151888601526060808301518282880152614ee98388018261449e565b9250505060808083015186830382880152614f048382614650565b60a0948501516001600160a01b03169790940196909652505094870194925090860190600101614ea9565b600181811c90821680614f4357607f821691505b60208210811415614f6457634e487b7160e01b600052602260045260246000fd5b50919050565b634e487b7160e01b600052601160045260246000fd5b600082821015614f9257614f92614f6a565b500390565b60008219821115614faa57614faa614f6a565b500190565b634e487b7160e01b600052603260045260246000fd5b6000600019821415614fd957614fd9614f6a565b5060010190565b6020808252602e908201527f4552433732313a2063616c6c6572206973206e6f7420746f6b656e206f776e6560408201526d1c881b9bdc88185c1c1c9bdd995960921b606082015260800190565b602080825260189082015277115490cdcc8c4e881a5b9d985b1a59081d1bdad95b88125160421b604082015260600190565b8054600090600181811c908083168061507a57607f831692505b602080841082141561509c57634e487b7160e01b600052602260045260246000fd5b838852602088018280156150b757600181146150c8576150f3565b60ff198716825282820197506150f3565b60008981526020902060005b878110156150ed578154848201529086019084016150d4565b83019850505b5050505050505092915050565b60006101208b835280602084015261511a8184018c615060565b90508960408401528281036060840152615134818a615060565b905082810360808401526151488189615060565b90508660a084015282810360c08401526151628187615060565b60e084019590955250506001600160a01b039190911661010090910152979650505050505050565b8581526001600160a01b038516602082015260a0604082018190526000906151b49083018661449e565b82810360608401526151c6818661449e565b9150508260808301529695505050505050565b80516001600160501b038116811461451a57600080fd5b600080600080600060a0868803121561520857600080fd5b615211866151d9565b9450602086015193506040860151925060608601519150615234608087016151d9565b90509295509295909350565b60008351615252818460208801614472565b835190830190615266818360208801614472565b01949350505050565b60208082526024908201527f5072696365206d75737420626520657175616c20746f206c697374696e6720706040820152637269636560e01b606082015260800190565b6001600160a01b0388811682528716602082015260408101869052841515606082015260e0608082018190526000906152ee9083018661449e565b82810360a0840152615300818661449e565b905082810360c0840152615314818561449e565b9a9950505050505050505050565b60208082526032908201527f4552433732313a207472616e7366657220746f206e6f6e20455243373231526560408201527131b2b4bb32b91034b6b83632b6b2b73a32b960711b606082015260800190565b6001600160a01b03858116825284166020820152604081018390526080606082018190526000906126bb9083018461449e565b6000602082840312156153b957600080fd5b8151613f7f8161443f565b634e487b7160e01b600052601260045260246000fd5b6000826153e9576153e96153c4565b500490565b6000826153fd576153fd6153c4565b50069056feddf252ad1be2c89b69c2b068fc378daa952ba7f163c4a11628f55a4df523b3efa264697066735822122022bfabbbeb32bdd94353c4bd3cc43d2f1ba7d5543e99723f04f22653e3e65c4864736f6c63430008090033",
  "linkReferences": {},
  "deployedLinkReferences": {}
}